{"abi":[{"type":"function","name":"UPGRADE_INTERFACE_VERSION","inputs":[],"outputs":[{"name":"","type":"string","internalType":"string"}],"stateMutability":"view"},{"type":"function","name":"commitStarSighting","inputs":[{"name":"_starName","type":"string","internalType":"string"}],"outputs":[],"stateMutability":"nonpayable"},{"type":"function","name":"createPASKATicket","inputs":[{"name":"_signature","type":"bytes","internalType":"bytes"}],"outputs":[],"stateMutability":"nonpayable"},{"type":"function","name":"getStarSightings","inputs":[{"name":"_starName","type":"string","internalType":"string"}],"outputs":[{"name":"","type":"uint256[]","internalType":"uint256[]"}],"stateMutability":"view"},{"type":"function","name":"initialize","inputs":[{"name":"_pastStarSightings","type":"string[]","internalType":"string[]"}],"outputs":[],"stateMutability":"nonpayable"},{"type":"function","name":"proxiableUUID","inputs":[],"outputs":[{"name":"","type":"bytes32","internalType":"bytes32"}],"stateMutability":"view"},{"type":"function","name":"upgradeToAndCall","inputs":[{"name":"newImplementation","type":"address","internalType":"address"},{"name":"data","type":"bytes","internalType":"bytes"}],"outputs":[],"stateMutability":"payable"},{"type":"event","name":"AuthorizedKernelUpgrade","inputs":[{"name":"newImplementation","type":"address","indexed":false,"internalType":"address"}],"anonymous":false},{"type":"event","name":"Initialized","inputs":[{"name":"version","type":"uint64","indexed":false,"internalType":"uint64"}],"anonymous":false},{"type":"event","name":"PASKATicketCreated","inputs":[{"name":"ticket","type":"tuple","indexed":false,"internalType":"struct StargazerKernel.PASKATicket","components":[{"name":"hashedRequest","type":"bytes32","internalType":"bytes32"},{"name":"signature","type":"bytes","internalType":"bytes"}]}],"anonymous":false},{"type":"event","name":"StarSightingRecorded","inputs":[{"name":"starName","type":"string","indexed":false,"internalType":"string"},{"name":"sightingTimestamp","type":"uint256","indexed":false,"internalType":"uint256"}],"anonymous":false},{"type":"event","name":"Upgraded","inputs":[{"name":"implementation","type":"address","indexed":true,"internalType":"address"}],"anonymous":false},{"type":"error","name":"AddressEmptyCode","inputs":[{"name":"target","type":"address","internalType":"address"}]},{"type":"error","name":"ERC1967InvalidImplementation","inputs":[{"name":"implementation","type":"address","internalType":"address"}]},{"type":"error","name":"ERC1967NonPayable","inputs":[]},{"type":"error","name":"FailedCall","inputs":[]},{"type":"error","name":"InvalidInitialization","inputs":[]},{"type":"error","name":"NotInitializing","inputs":[]},{"type":"error","name":"UUPSUnauthorizedCallContext","inputs":[]},{"type":"error","name":"UUPSUnsupportedProxiableUUID","inputs":[{"name":"slot","type":"bytes32","internalType":"bytes32"}]}],"bytecode":{"object":"0x60a060405230608052348015601357600080fd5b5060805161158461003d6000396000818161067a015281816106a3015261084001526115846000f3fe6080604052600436106100705760003560e01c8063ad3cb1cc1161004e578063ad3cb1cc146100d2578063bfe3b3cb14610110578063e9e2477214610130578063f8780be81461015057600080fd5b80634f1ef2861461007557806352d1902d1461008a578063893c3b4c146100b2575b600080fd5b6100886100833660046110ec565b61017d565b005b34801561009657600080fd5b5061009f61019c565b6040519081526020015b60405180910390f35b3480156100be57600080fd5b506100886100cd366004611148565b6101b9565b3480156100de57600080fd5b50610103604051806040016040528060058152602001640352e302e360dc1b81525081565b6040516100a9919061126a565b34801561011c57600080fd5b5061008861012b36600461127d565b61037a565b34801561013c57600080fd5b5061008861014b36600461127d565b61041b565b34801561015c57600080fd5b5061017061016b36600461127d565b6105cf565b6040516100a991906112ba565b61018561066f565b61018e82610716565b610198828261076e565b5050565b60006101a6610835565b5060008051602061152f83398151915290565b7ff0c57e16840df040f15088dc2f81fe391c3923bec73e23a9662efc9c229c6a008054600160401b810460ff16159067ffffffffffffffff166000811580156101ff5750825b905060008267ffffffffffffffff16600114801561021c5750303b155b90508115801561022a575080155b156102485760405163f92ee8a960e01b815260040160405180910390fd5b845467ffffffffffffffff19166001178555831561027257845460ff60401b1916600160401b1785555b61027a61066f565b600061028461087e565b428155326000818152600383016020526040812080546001600160a01b0319169092179091559091505b87518110156103295760008882815181106102cb576102cb6112fd565b60200260200101516040516020016102e39190611313565b60408051601f19818403018152918152815160209283012060009081526001808701845291812080548084018255908252929020429201919091559190910190506102ae565b5050831561037257845460ff60401b19168555604051600181527fc7f505b2f371ae2175ee4913f4499e1f2633a7b5936321eed1cdaeb6115181d2906020015b60405180910390a15b505050505050565b61038261066f565b32600061038e826108ad565b9050600061039a61087e565b90506000846040516020016103af9190611313565b60408051601f198184030181528282528051602091820120600081815260018088018452938120805494850181558152919091204292018290559250907f43b30780df0be2516769e6f5e02c521506634e878f270e128533b85227668aa390610369908890849061132f565b61042361066f565b600061042d61087e565b326000908152600382016020908152604080832060020154905193945092610503916104a3918591017f5041534b413a2050726976696c6567656420417574686f72697a6564205374618152723933b0bd32b925b2b93732b61020b1ba34b7b760691b6020820152603381019190915260530190565b60408051601f1981840301815282825280516020918201207f19457468657265756d205369676e6564204d6573736167653a0a33320000000084830152603c8085019190915282518085039091018152605c909301909152815191012090565b604080518082019091528181526020810186905290915061052381610abd565b326000908152600385016020908152604082206001908101805480830182559084529282902084516002909402019283559083015183929182019061056890826113d9565b50503260009081526003860160205260408120600201805492509061058c836114ae565b91905055507fac1f1e975478fcc6cfcaee7cdf341ebfedaa56f05ac1e364a9097157903da356816040516105c091906114c7565b60405180910390a15050505050565b60606105d961066f565b60006105e361087e565b90506000836040516020016105f89190611313565b60408051601f1981840301815282825280516020918201206000818152600187018352839020805480840286018401909452838552909450919083018282801561066157602002820191906000526020600020905b81548152602001906001019080831161064d575b505050505092505050919050565b306001600160a01b037f00000000000000000000000000000000000000000000000000000000000000001614806106f657507f00000000000000000000000000000000000000000000000000000000000000006001600160a01b03166106ea60008051602061152f833981519152546001600160a01b031690565b6001600160a01b031614155b156107145760405163703e46dd60e11b815260040160405180910390fd5b565b61071e61066f565b32600061072a826108ad565b6040516001600160a01b03851681529091507f23443ed7019b78c172825eeefa8e77746f22c9c9dc2e1e753f4a6c1cf77ae44f9060200160405180910390a1505050565b816001600160a01b03166352d1902d6040518163ffffffff1660e01b8152600401602060405180830381865afa9250505080156107c8575060408051601f3d908101601f191682019092526107c5918101906114ec565b60015b6107f557604051634c9c8ce360e01b81526001600160a01b03831660048201526024015b60405180910390fd5b60008051602061152f833981519152811461082657604051632a87526960e21b8152600481018290526024016107ec565b6108308383610c09565b505050565b306001600160a01b037f000000000000000000000000000000000000000000000000000000000000000016146107145760405163703e46dd60e11b815260040160405180910390fd5b600061088861066f565b507f8e8af00ddb7b2dfef2ccc4890803445639c579a87f9cda7f6886f80281e2c80090565b6040805180820190915260008152606060208201526108ca61066f565b60006108d461087e565b6001600160a01b0384166000908152600382016020526040902060018101805492935090916109575760405162461bcd60e51b815260206004820152602960248201527f5374617267617a65724b65726e656c3a206e6f20616374697665205041534b41604482015268103a34b1b5b2ba399760b91b60648201526084016107ec565b8054600090829061096a90600190611505565b8154811061097a5761097a6112fd565b9060005260206000209060020201604051806040016040529081600082015481526020016001820180546109ad90611351565b80601f01602080910402602001604051908101604052809291908181526020018280546109d990611351565b8015610a265780601f106109fb57610100808354040283529160200191610a26565b820191906000526020600020905b815481529060010190602001808311610a0957829003601f168201915b5050505050815250509050600081604051602001610a4491906114c7565b60408051601f1981840301815291815281516020928301206000818152600289019093529120805460ff191660011790558354909150839080610a8957610a89611518565b60008281526020812060026000199093019283020181815590610aaf6001830182610fe0565b505090555095945050505050565b610ac561066f565b6000610acf61087e565b90506000610ae583600001518460200151610c5f565b9050610af081610e1f565b610b625760405162461bcd60e51b815260206004820152603c60248201527f5374617267617a65724b65726e656c3a207369676e6572206973206e6f74206160448201527f205374617267617a65724b65726e656c206d61696e7461696e65722e0000000060648201526084016107ec565b600083604051602001610b7591906114c7565b60408051601f19818403018152918152815160209283012060008181526002870190935291205490915060ff1615610c035760405162461bcd60e51b815260206004820152602b60248201527f5374617267617a65724b65726e656c3a205041534b41207469636b657420616c60448201526a3932b0b23c903ab9b2b21760a91b60648201526084016107ec565b50505050565b610c1282610e5b565b6040516001600160a01b038316907fbc7cd75a20ee27fd9adebab32041f755214dbc6bffa90cc0225b39da2e5c2d3b90600090a2805115610c57576108308282610ec0565b610198610f36565b6000610c6961066f565b8151604114610ccd5760405162461bcd60e51b815260206004820152602a60248201527f5374617267617a65724b65726e656c3a20696e76616c6964207369676e6174756044820152693932903632b733ba341760b11b60648201526084016107ec565b60208201516040830151606084015160001a601b811480610cf157508060ff16601c145b610d505760405162461bcd60e51b815260206004820152602a60248201527f5374617267617a65724b65726e656c3a20696e76616c6964207369676e6174756044820152693932903b32b939b4b7b760b11b60648201526084016107ec565b6040805160008082526020820180845289905260ff841692820192909252606081018590526080810184905260019060a0016020604051602081039080840390855afa158015610da4573d6000803e3d6000fd5b5050604051601f1901519150506001600160a01b038116610e135760405162461bcd60e51b815260206004820152602360248201527f5374617267617a65724b65726e656c3a20696e76616c6964207369676e61747560448201526239329760e91b60648201526084016107ec565b93505050505b92915050565b6000610e2961066f565b6000610e3361087e565b6001600160a01b03808516600081815260039093016020526040909220541614915050919050565b806001600160a01b03163b600003610e9157604051634c9c8ce360e01b81526001600160a01b03821660048201526024016107ec565b60008051602061152f83398151915280546001600160a01b0319166001600160a01b0392909216919091179055565b6060600080846001600160a01b031684604051610edd9190611313565b600060405180830381855af49150503d8060008114610f18576040519150601f19603f3d011682016040523d82523d6000602084013e610f1d565b606091505b5091509150610f2d858383610f55565b95945050505050565b34156107145760405163b398979f60e01b815260040160405180910390fd5b606082610f6a57610f6582610fb4565b610fad565b8151158015610f8157506001600160a01b0384163b155b15610faa57604051639996b31560e01b81526001600160a01b03851660048201526024016107ec565b50805b9392505050565b805115610fc45780518082602001fd5b60405163d6bda27560e01b815260040160405180910390fd5b50565b508054610fec90611351565b6000825580601f10610ffc575050565b601f016020900490600052602060002090810190610fdd91905b8082111561102a5760008155600101611016565b5090565b634e487b7160e01b600052604160045260246000fd5b604051601f8201601f1916810167ffffffffffffffff8111828210171561106d5761106d61102e565b604052919050565b600082601f83011261108657600080fd5b81356020830160008067ffffffffffffffff8411156110a7576110a761102e565b50601f8301601f19166020016110bc81611044565b9150508281528583830111156110d157600080fd5b82826020830137600092810160200192909252509392505050565b600080604083850312156110ff57600080fd5b82356001600160a01b038116811461111657600080fd5b9150602083013567ffffffffffffffff81111561113257600080fd5b61113e85828601611075565b9150509250929050565b60006020828403121561115a57600080fd5b813567ffffffffffffffff81111561117157600080fd5b8201601f8101841361118257600080fd5b803567ffffffffffffffff81111561119c5761119c61102e565b8060051b6111ac60208201611044565b918252602081840181019290810190878411156111c857600080fd5b6020850192505b8383101561120f57823567ffffffffffffffff8111156111ee57600080fd5b6111fd89602083890101611075565b835250602092830192909101906111cf565b979650505050505050565b60005b8381101561123557818101518382015260200161121d565b50506000910152565b6000815180845261125681602086016020860161121a565b601f01601f19169290920160200192915050565b602081526000610fad602083018461123e565b60006020828403121561128f57600080fd5b813567ffffffffffffffff8111156112a657600080fd5b6112b284828501611075565b949350505050565b602080825282518282018190526000918401906040840190835b818110156112f25783518352602093840193909201916001016112d4565b509095945050505050565b634e487b7160e01b600052603260045260246000fd5b6000825161132581846020870161121a565b9190910192915050565b604081526000611342604083018561123e565b90508260208301529392505050565b600181811c9082168061136557607f821691505b60208210810361138557634e487b7160e01b600052602260045260246000fd5b50919050565b601f82111561083057806000526020600020601f840160051c810160208510156113b25750805b601f840160051c820191505b818110156113d257600081556001016113be565b5050505050565b815167ffffffffffffffff8111156113f3576113f361102e565b611407816114018454611351565b8461138b565b6020601f82116001811461143b57600083156114235750848201515b600019600385901b1c1916600184901b1784556113d2565b600084815260208120601f198516915b8281101561146b578785015182556020948501946001909201910161144b565b50848210156114895786840151600019600387901b60f8161c191681555b50505050600190811b01905550565b634e487b7160e01b600052601160045260246000fd5b6000600182016114c0576114c0611498565b5060010190565b6020815281516020820152600060208301516040808401526112b2606084018261123e565b6000602082840312156114fe57600080fd5b5051919050565b81810381811115610e1957610e19611498565b634e487b7160e01b600052603160045260246000fdfe360894a13ba1a3210667c828492db98dca3e2076cc3735a920a3ca505d382bbca2646970667358221220e9d62fdd1ad066439576b09a062ad92104d2cb643bf94bded99f53b60b7523d764736f6c634300081b0033","linkReferences":{}},"methodIdentifiers":{"UPGRADE_INTERFACE_VERSION()":"ad3cb1cc","commitStarSighting(string)":"bfe3b3cb","createPASKATicket(bytes)":"e9e24772","getStarSightings(string)":"f8780be8","initialize(string[])":"893c3b4c","proxiableUUID()":"52d1902d","upgradeToAndCall(address,bytes)":"4f1ef286"},"id":10}