{"abi":[{"type":"function","name":"storePod","inputs":[{"name":"_data","type":"string","internalType":"string"}],"outputs":[],"stateMutability":"nonpayable"},{"type":"event","name":"PodStored","inputs":[{"name":"user","type":"address","indexed":true,"internalType":"address"},{"name":"data","type":"string","indexed":false,"internalType":"string"}],"anonymous":false}],"bytecode":{"object":"0x6080604052348015600f57600080fd5b5061033e8061001f6000396000f3fe608060405234801561001057600080fd5b506004361061002b5760003560e01c80630c853b7814610030575b600080fd5b61004361003e3660046100b9565b610045565b005b33600090815260208190526040902061005e82826101fb565b50336001600160a01b03167f8756f21c4a2b6b179da2cf2bfd156724e3ae8c1f5fc7d3e25d9483733e5d92218260405161009891906102ba565b60405180910390a250565b634e487b7160e01b600052604160045260246000fd5b6000602082840312156100cb57600080fd5b813567ffffffffffffffff8111156100e257600080fd5b8201601f810184136100f357600080fd5b803567ffffffffffffffff81111561010d5761010d6100a3565b604051601f8201601f19908116603f0116810167ffffffffffffffff8111828210171561013c5761013c6100a3565b60405281815282820160200186101561015457600080fd5b81602084016020830137600091810160200191909152949350505050565b600181811c9082168061018657607f821691505b6020821081036101a657634e487b7160e01b600052602260045260246000fd5b50919050565b601f8211156101f657806000526020600020601f840160051c810160208510156101d35750805b601f840160051c820191505b818110156101f357600081556001016101df565b50505b505050565b815167ffffffffffffffff811115610215576102156100a3565b610229816102238454610172565b846101ac565b6020601f82116001811461025d57600083156102455750848201515b600019600385901b1c1916600184901b1784556101f3565b600084815260208120601f198516915b8281101561028d578785015182556020948501946001909201910161026d565b50848210156102ab5786840151600019600387901b60f8161c191681555b50505050600190811b01905550565b602081526000825180602084015260005b818110156102e857602081860181015160408684010152016102cb565b506000604082850101526040601f19601f8301168401019150509291505056fea2646970667358221220efeed43a098f4a1ef6f3c1432cb9c844b04a441ce617b050eb83b1189515b48d64736f6c634300081b0033","linkReferences":{}},"methodIdentifiers":{"storePod(string)":"0c853b78"},"id":0}