{"abi":[{"type":"constructor","inputs":[],"stateMutability":"payable"},{"type":"function","name":"TARGET","inputs":[],"outputs":[{"name":"","type":"address","internalType":"contract CryoPod"}],"stateMutability":"view"},{"type":"function","name":"flagHash","inputs":[],"outputs":[{"name":"","type":"bytes32","internalType":"bytes32"}],"stateMutability":"view"},{"type":"function","name":"isSolved","inputs":[{"name":"flag","type":"string","internalType":"string"}],"outputs":[{"name":"","type":"bool","internalType":"bool"}],"stateMutability":"view"},{"type":"event","name":"DeployedTarget","inputs":[{"name":"at","type":"address","indexed":false,"internalType":"address"}],"anonymous":false}],"bytecode":{"object":"0x60a06040819052600080556011906072565b604051809103906000f080158015602c573d6000803e3d6000fd5b506001600160a01b031660808190526040519081527fc26ec5464cc58ea5f3597f1daab5d82585655e1bfd634b0a94fdd5ab63740dbf9060200160405180910390a1607f565b61035d8061024d83390190565b6080516101b46100996000396000608a01526101b46000f3fe608060405234801561001057600080fd5b50600436106100415760003560e01c80631455e4d7146100465780635e59d79014610062578063cc1f2afa14610085575b600080fd5b61004f60005481565b6040519081526020015b60405180910390f35b6100756100703660046100fa565b6100c4565b6040519015158152602001610059565b6100ac7f000000000000000000000000000000000000000000000000000000000000000081565b6040516001600160a01b039091168152602001610059565b6000805483836040516020016100db92919061016e565b6040516020818303038152906040528051906020012014905092915050565b6000806020838503121561010d57600080fd5b823567ffffffffffffffff81111561012457600080fd5b8301601f8101851361013557600080fd5b803567ffffffffffffffff81111561014c57600080fd5b85602082840101111561015e57600080fd5b6020919091019590945092505050565b818382376000910190815291905056fea26469706673582212205eefb04da574df37707429580de2907fa892613bfd3a111d620567c40d2814cc64736f6c634300081b00336080604052348015600f57600080fd5b5061033e8061001f6000396000f3fe608060405234801561001057600080fd5b506004361061002b5760003560e01c80630c853b7814610030575b600080fd5b61004361003e3660046100b9565b610045565b005b33600090815260208190526040902061005e82826101fb565b50336001600160a01b03167f8756f21c4a2b6b179da2cf2bfd156724e3ae8c1f5fc7d3e25d9483733e5d92218260405161009891906102ba565b60405180910390a250565b634e487b7160e01b600052604160045260246000fd5b6000602082840312156100cb57600080fd5b813567ffffffffffffffff8111156100e257600080fd5b8201601f810184136100f357600080fd5b803567ffffffffffffffff81111561010d5761010d6100a3565b604051601f8201601f19908116603f0116810167ffffffffffffffff8111828210171561013c5761013c6100a3565b60405281815282820160200186101561015457600080fd5b81602084016020830137600091810160200191909152949350505050565b600181811c9082168061018657607f821691505b6020821081036101a657634e487b7160e01b600052602260045260246000fd5b50919050565b601f8211156101f657806000526020600020601f840160051c810160208510156101d35750805b601f840160051c820191505b818110156101f357600081556001016101df565b50505b505050565b815167ffffffffffffffff811115610215576102156100a3565b610229816102238454610172565b846101ac565b6020601f82116001811461025d57600083156102455750848201515b600019600385901b1c1916600184901b1784556101f3565b600084815260208120601f198516915b8281101561028d578785015182556020948501946001909201910161026d565b50848210156102ab5786840151600019600387901b60f8161c191681555b50505050600190811b01905550565b602081526000825180602084015260005b818110156102e857602081860181015160408684010152016102cb565b506000604082850101526040601f19601f8301168401019150509291505056fea2646970667358221220efeed43a098f4a1ef6f3c1432cb9c844b04a441ce617b050eb83b1189515b48d64736f6c634300081b0033","linkReferences":{}},"methodIdentifiers":{"TARGET()":"cc1f2afa","flagHash()":"1455e4d7","isSolved(string)":"5e59d790"},"id":1}