{"abi":[{"type":"constructor","inputs":[],"stateMutability":"nonpayable"},{"type":"function","name":"controlUnit","inputs":[],"outputs":[{"name":"status","type":"uint8","internalType":"uint8"},{"name":"registeredGateways","type":"uint256","internalType":"uint256"},{"name":"currentCapacity","type":"uint256","internalType":"uint256"},{"name":"allocatedAllowance","type":"uint256","internalType":"uint256"}],"stateMutability":"view"},{"type":"function","name":"gateways","inputs":[{"name":"","type":"address","internalType":"address"}],"outputs":[{"name":"status","type":"uint8","internalType":"uint8"},{"name":"quota","type":"uint256","internalType":"uint256"},{"name":"totalUsage","type":"uint256","internalType":"uint256"}],"stateMutability":"view"},{"type":"function","name":"registerGateway","inputs":[{"name":"_gateway","type":"address","internalType":"address"}],"outputs":[],"stateMutability":"payable"},{"type":"function","name":"requestPowerDelivery","inputs":[{"name":"_amount","type":"uint256","internalType":"uint256"},{"name":"_receiver","type":"address","internalType":"address"}],"outputs":[],"stateMutability":"nonpayable"},{"type":"function","name":"requestQuotaIncrease","inputs":[{"name":"_gateway","type":"address","internalType":"address"}],"outputs":[],"stateMutability":"payable"},{"type":"event","name":"ControlUnitEmergencyModeActivated","inputs":[],"anonymous":false},{"type":"event","name":"GatewayQuotaIncrease","inputs":[{"name":"gateway","type":"address","indexed":true,"internalType":"address"},{"name":"quotaAmount","type":"uint256","indexed":false,"internalType":"uint256"}],"anonymous":false},{"type":"event","name":"GatewayRegistered","inputs":[{"name":"gateway","type":"address","indexed":true,"internalType":"address"}],"anonymous":false},{"type":"event","name":"PowerDeliveryRequest","inputs":[{"name":"gateway","type":"address","indexed":true,"internalType":"address"},{"name":"powerAmount","type":"uint256","indexed":false,"internalType":"uint256"}],"anonymous":false},{"type":"event","name":"PowerDeliverySuccess","inputs":[{"name":"gateway","type":"address","indexed":true,"internalType":"address"},{"name":"powerAmount","type":"uint256","indexed":false,"internalType":"uint256"}],"anonymous":false}],"bytecode":{"object":"0x6080604052348015600e575f5ffd5b5060015f5f015f6101000a81548160ff021916908360ff16021790555068056bc75e2d631000005f600201819055505f5f60030181905550611297806100535f395ff3fe608060405260043610610049575f3560e01c8063324ad5861461004d5780633c4426a4146100755780639022c19c14610091578063a12a4df8146100cf578063a197d002146100fc575b5f5ffd5b348015610058575f5ffd5b50610073600480360381019061006e9190610a88565b610118565b005b61008f600480360381019061008a9190610ac6565b610485565b005b34801561009c575f5ffd5b506100b760048036038101906100b29190610ac6565b610712565b6040516100c693929190610b1b565b60405180910390f35b3480156100da575f5ffd5b506100e3610744565b6040516100f39493929190610b50565b60405180910390f35b61011660048036038101906101119190610ac6565b61076c565b005b3273ffffffffffffffffffffffffffffffffffffffff163373ffffffffffffffffffffffffffffffffffffffff1614610186576040517f08c379a000000000000000000000000000000000000000000000000000000000815260040161017d90610c13565b60405180910390fd5b678ac7230489e800005f60020154116101e65760035f5f015f6101000a81548160ff021916908360ff1602179055507f668880833047d9c4cc8495889d2618ca84c7f186db6ac66c29a7322826973dc660405160405180910390a1610481565b5f60045f8373ffffffffffffffffffffffffffffffffffffffff1673ffffffffffffffffffffffffffffffffffffffff1681526020019081526020015f209050600160ff16815f015f9054906101000a900460ff1660ff161461027e576040517f08c379a000000000000000000000000000000000000000000000000000000000815260040161027590610ca1565b60405180910390fd5b5f83116102c0576040517f08c379a00000000000000000000000000000000000000000000000000000000081526004016102b790610d2f565b60405180910390fd5b8060010154831115610307576040517f08c379a00000000000000000000000000000000000000000000000000000000081526004016102fe90610d97565b60405180910390fd5b8173ffffffffffffffffffffffffffffffffffffffff167f3283b72465e6fb1c5a42840f14b0a024a2ecf0ac5478cfff3338b7fe4d1373de8460405161034d9190610db5565b60405180910390a260025f5f015f6101000a81548160ff021916908360ff160217905550825f6002015f8282546103849190610dfb565b925050819055508173ffffffffffffffffffffffffffffffffffffffff16637ec5007a846040518263ffffffff1660e01b81526004016103c49190610db5565b6020604051808303815f875af11580156103e0573d5f5f3e3d5ffd5b505050506040513d601f19601f820116820180604052508101906104049190610e63565b5082816002015f8282546104189190610e8e565b9250508190555068056bc75e2d631000005f600201819055508173ffffffffffffffffffffffffffffffffffffffff167fc303f77669a8be84fee7899b99ddeab599993e5ead94a9589b41831140a12902846040516104779190610db5565b60405180910390a2505b5050565b3273ffffffffffffffffffffffffffffffffffffffff163373ffffffffffffffffffffffffffffffffffffffff16146104f3576040517f08c379a00000000000000000000000000000000000000000000000000000000081526004016104ea90610c13565b60405180910390fd5b678ac7230489e800005f60020154116105535760035f5f015f6101000a81548160ff021916908360ff1602179055507f668880833047d9c4cc8495889d2618ca84c7f186db6ac66c29a7322826973dc660405160405180910390a161070f565b5f3411610595576040517f08c379a000000000000000000000000000000000000000000000000000000000815260040161058c90610f31565b60405180910390fd5b5f60045f8373ffffffffffffffffffffffffffffffffffffffff1673ffffffffffffffffffffffffffffffffffffffff1681526020019081526020015f2090505f60ff16815f015f9054906101000a900460ff1660ff160361062c576040517f08c379a000000000000000000000000000000000000000000000000000000000815260040161062390610fbf565b60405180910390fd5b5f81600101549050678ac7230489e8000034826106499190610e8e565b111561068a576040517f08c379a00000000000000000000000000000000000000000000000000000000081526004016106819061104d565b60405180910390fd5b34826001015f82825461069d9190610e8e565b92505081905550345f6003015f8282546106b79190610e8e565b925050819055508273ffffffffffffffffffffffffffffffffffffffff167fb0e98ca922f9ad3cbd25ab949b19ea0c6897b757a42a7540fd4bfd39bfba19c4346040516107049190610db5565b60405180910390a250505b50565b6004602052805f5260405f205f91509050805f015f9054906101000a900460ff16908060010154908060020154905083565b5f805f015f9054906101000a900460ff16908060010154908060020154908060030154905084565b3273ffffffffffffffffffffffffffffffffffffffff163373ffffffffffffffffffffffffffffffffffffffff16146107da576040517f08c379a00000000000000000000000000000000000000000000000000000000081526004016107d190610c13565b60405180910390fd5b678ac7230489e800005f600201541161083a5760035f5f015f6101000a81548160ff021916908360ff1602179055507f668880833047d9c4cc8495889d2618ca84c7f186db6ac66c29a7322826973dc660405160405180910390a16109f4565b600560ff165f6001015410610884576040517f08c379a000000000000000000000000000000000000000000000000000000000815260040161087b90611127565b60405180910390fd5b6801158e460913d0000034146108cf576040517f08c379a00000000000000000000000000000000000000000000000000000000081526004016108c6906111b5565b60405180910390fd5b5f60045f8373ffffffffffffffffffffffffffffffffffffffff1673ffffffffffffffffffffffffffffffffffffffff1681526020019081526020015f2090505f60ff16815f015f9054906101000a900460ff1660ff1614610966576040517f08c379a000000000000000000000000000000000000000000000000000000000815260040161095d90611243565b60405180910390fd5b6001815f015f6101000a81548160ff021916908360ff1602179055505f81600101819055505f816002018190555060015f6001015f8282546109a89190610e8e565b925050819055508173ffffffffffffffffffffffffffffffffffffffff167f18eacfcb80f18277666c9aaa9f292d376a4fdb0058757cc563a0f20ab0be120b60405160405180910390a2505b50565b5f5ffd5b5f819050919050565b610a0d816109fb565b8114610a17575f5ffd5b50565b5f81359050610a2881610a04565b92915050565b5f73ffffffffffffffffffffffffffffffffffffffff82169050919050565b5f610a5782610a2e565b9050919050565b610a6781610a4d565b8114610a71575f5ffd5b50565b5f81359050610a8281610a5e565b92915050565b5f5f60408385031215610a9e57610a9d6109f7565b5b5f610aab85828601610a1a565b9250506020610abc85828601610a74565b9150509250929050565b5f60208284031215610adb57610ada6109f7565b5b5f610ae884828501610a74565b91505092915050565b5f60ff82169050919050565b610b0681610af1565b82525050565b610b15816109fb565b82525050565b5f606082019050610b2e5f830186610afd565b610b3b6020830185610b0c565b610b486040830184610b0c565b949350505050565b5f608082019050610b635f830187610afd565b610b706020830186610b0c565b610b7d6040830185610b0c565b610b8a6060830184610b0c565b95945050505050565b5f82825260208201905092915050565b7f5b56434e4b5d20496c6c6567616c207265656e7472616e7420706f77657220645f8201527f656c697665727920726571756573742064657465637465642e00000000000000602082015250565b5f610bfd603983610b93565b9150610c0882610ba3565b604082019050919050565b5f6020820190508181035f830152610c2a81610bf1565b9050919050565b7f5b56434e4b5d2047617465776179206973206e6f7420696e20612076616c69645f8201527f20737461746520666f7220706f7765722064656c69766572792e000000000000602082015250565b5f610c8b603a83610b93565b9150610c9682610c31565b604082019050919050565b5f6020820190508181035f830152610cb881610c7f565b9050919050565b7f5b56434e4b5d2052657175657374656420706f776572206d75737420626520675f8201527f726561746572207468616e20302e000000000000000000000000000000000000602082015250565b5f610d19602e83610b93565b9150610d2482610cbf565b604082019050919050565b5f6020820190508181035f830152610d4681610d0d565b9050919050565b7f5b56434e4b5d20496e73756666696369656e742071756f74612e0000000000005f82015250565b5f610d81601a83610b93565b9150610d8c82610d4d565b602082019050919050565b5f6020820190508181035f830152610dae81610d75565b9050919050565b5f602082019050610dc85f830184610b0c565b92915050565b7f4e487b71000000000000000000000000000000000000000000000000000000005f52601160045260245ffd5b5f610e05826109fb565b9150610e10836109fb565b9250828203905081811115610e2857610e27610dce565b5b92915050565b5f8115159050919050565b610e4281610e2e565b8114610e4c575f5ffd5b50565b5f81519050610e5d81610e39565b92915050565b5f60208284031215610e7857610e776109f7565b5b5f610e8584828501610e4f565b91505092915050565b5f610e98826109fb565b9150610ea3836109fb565b9250828201905080821115610ebb57610eba610dce565b5b92915050565b7f5b56434e4b5d204465706f736974206d757374206265206772656174657220745f8201527f68616e20302e0000000000000000000000000000000000000000000000000000602082015250565b5f610f1b602683610b93565b9150610f2682610ec1565b604082019050919050565b5f6020820190508181035f830152610f4881610f0f565b9050919050565b7f5b56434e4b5d2047617465776179206973206e6f7420726567697374657265645f8201527f2e00000000000000000000000000000000000000000000000000000000000000602082015250565b5f610fa9602183610b93565b9150610fb482610f4f565b604082019050919050565b5f6020820190508181035f830152610fd681610f9d565b9050919050565b7f5b56434e4b5d205265717565737465642071756f74612065786365656473206d5f8201527f6178696d756d20616c6c6f77616e63652070657220676174657761792e000000602082015250565b5f611037603d83610b93565b915061104282610fdd565b604082019050919050565b5f6020820190508181035f8301526110648161102b565b9050919050565b7f5b56434e4b5d204d6178696d756d206e756d626572206f6620726567697374655f8201527f72656420676174657761797320726561636865642e20496e667261737472756360208201527f747572652077696c6c206265207363616c656420757020736f6f6e2c20736f7260408201527f727920666f722074686520696e636f6e76656e69656e63652e00000000000000606082015250565b5f611111607983610b93565b915061111c8261106b565b608082019050919050565b5f6020820190508181035f83015261113e81611105565b9050919050565b7f5b56434e4b5d20526567697374726174696f6e20666565206d757374206265205f8201527f32302065746865722e0000000000000000000000000000000000000000000000602082015250565b5f61119f602983610b93565b91506111aa82611145565b604082019050919050565b5f6020820190508181035f8301526111cc81611193565b9050919050565b7f5b56434e4b5d204761746577617920697320616c7265616479207265676973745f8201527f657265642e000000000000000000000000000000000000000000000000000000602082015250565b5f61122d602583610b93565b9150611238826111d3565b604082019050919050565b5f6020820190508181035f83015261125a81611221565b905091905056fea264697066735822122092ac324831a1882490be10300e5ea2d97bb59a7ee1c351085ed4ab9da9eeefca64736f6c634300081d0033","linkReferences":{}},"methodIdentifiers":{"controlUnit()":"a12a4df8","gateways(address)":"9022c19c","registerGateway(address)":"a197d002","requestPowerDelivery(uint256,address)":"324ad586","requestQuotaIncrease(address)":"3c4426a4"},"id":2}