{"abi":[{"type":"function","name":"attack","inputs":[{"name":"damage","type":"uint256","internalType":"uint256"}],"outputs":[],"stateMutability":"nonpayable"},{"type":"function","name":"health","inputs":[],"outputs":[{"name":"","type":"uint256","internalType":"uint256"}],"stateMutability":"view"},{"type":"function","name":"isDefeated","inputs":[],"outputs":[{"name":"","type":"bool","internalType":"bool"}],"stateMutability":"view"},{"type":"function","name":"lastAttackTimestamp","inputs":[],"outputs":[{"name":"","type":"uint256","internalType":"uint256"}],"stateMutability":"view"},{"type":"event","name":"EldorionDefeated","inputs":[{"name":"slayer","type":"address","indexed":false,"internalType":"address"}],"anonymous":false}],"bytecode":{"object":"0x608060405261012c600055348015601557600080fd5b5061022c806100256000396000f3fe608060405234801561001057600080fd5b506004361061004c5760003560e01c80630ecaba991461005157806364dd891a1461006d5780637633a22c14610082578063e2e12e721461008b575b600080fd5b61005a60015481565b6040519081526020015b60405180910390f35b61008061007b3660046101b6565b61009d565b005b61005a60005481565b60005460405190158152602001610064565b6001544211156100b25761012c600055426001555b60648111156101165760405162461bcd60e51b815260206004820152602560248201527f4d6f7274616c732063616e6e6f7420737472696b65206861726465722074686160448201526406e203130360dc1b60648201526084015b60405180910390fd5b80600054101561015f5760405162461bcd60e51b815260206004820152601460248201527313dd995c9ada5b1b081a5cc81dd85cdd19599d5b60621b604482015260640161010d565b8060008082825461017091906101cf565b90915550506000805490036101b3576040513381527febade57dfc06b2a07c4dc88f21eda0fe7af62c34f1a6b4b56e09b32a2bda0cc79060200160405180910390a15b50565b6000602082840312156101c857600080fd5b5035919050565b818103818111156101f057634e487b7160e01b600052601160045260246000fd5b9291505056fea2646970667358221220166cb18aa14da085cdf60fe49a38f1f4bd3b692914e095bd9b693e2f95c6d8b964736f6c634300081c0033","linkReferences":{}},"methodIdentifiers":{"attack(uint256)":"64dd891a","health()":"7633a22c","isDefeated()":"e2e12e72","lastAttackTimestamp()":"0ecaba99"},"id":0}