{"abi":[{"type":"constructor","inputs":[{"name":"_origin","type":"uint32","internalType":"uint32"},{"name":"_discoverer","type":"address","internalType":"address"}],"stateMutability":"nonpayable"},{"type":"function","name":"discover","inputs":[{"name":"_artifactLocation","type":"bytes32","internalType":"bytes32"}],"outputs":[],"stateMutability":"nonpayable"},{"type":"function","name":"lastSighting","inputs":[],"outputs":[{"name":"","type":"uint256","internalType":"uint256"}],"stateMutability":"view"}],"bytecode":{"object":"0x608060405234801561001057600080fd5b5060405161025038038061025083398101604081905261002f916100a3565b604080514360208201524291810191909152446060820152600090819060800160408051601f19818403018152919052805160209091012080546001600160a01b03909416640100000000026001600160c01b031990941663ffffffff9095169485179390931790925550506000556100f2565b600080604083850312156100b657600080fd5b825163ffffffff811681146100ca57600080fd5b60208401519092506001600160a01b03811681146100e757600080fd5b809150509250929050565b61014f806101016000396000f3fe608060405234801561001057600080fd5b50600436106100365760003560e01c80630f9b5d1f1461003b5780634e3d72b214610050575b600080fd5b61004e610049366004610100565b61006b565b005b61005960005481565b60405190815260200160405180910390f35b8054819063ffffffff166000036100de5760405162461bcd60e51b815260206004820152602d60248201527f466f72676f7474656e41727469666163743a20756e6b6e6f776e20617274696660448201526c30b1ba103637b1b0ba34b7b71760991b606482015260840160405180910390fd5b8054640100000000600160c01b03191633640100000000021790555042600055565b60006020828403121561011257600080fd5b503591905056fea26469706673582212206e2e0029c681f98be8de406dbd1a6ab2dacb34dacfcb7a1d4aa4dc62afe5bf6164736f6c634300081b0033","linkReferences":{}},"methodIdentifiers":{"discover(bytes32)":"0f9b5d1f","lastSighting()":"4e3d72b2"},"id":0}