{"abi":[{"type":"constructor","inputs":[],"stateMutability":"payable"},{"type":"function","name":"ARTIFACT_ORIGIN","inputs":[],"outputs":[{"name":"","type":"uint256","internalType":"uint256"}],"stateMutability":"view"},{"type":"function","name":"TARGET","inputs":[],"outputs":[{"name":"","type":"address","internalType":"contract ForgottenArtifact"}],"stateMutability":"view"},{"type":"function","name":"isSolved","inputs":[],"outputs":[{"name":"","type":"bool","internalType":"bool"}],"stateMutability":"view"},{"type":"event","name":"DeployedTarget","inputs":[{"name":"at","type":"address","indexed":false,"internalType":"address"}],"anonymous":false}],"bytecode":{"object":"0x60a060405261dead600060405161001590610093565b63ffffffff90921682526001600160a01b03166020820152604001604051809103906000f08015801561004c573d6000803e3d6000fd5b506001600160a01b031660808190526040519081527fc26ec5464cc58ea5f3597f1daab5d82585655e1bfd634b0a94fdd5ab63740dbf9060200160405180910390a16100a0565b6102508061025583390190565b6080516101956100c060003960008181607f015260c001526101956000f3fe608060405234801561001057600080fd5b50600436106100415760003560e01c8063468e2c681461004657806364d98f6e14610062578063cc1f2afa1461007a575b600080fd5b61004f61dead81565b6040519081526020015b60405180910390f35b61006a6100b9565b6040519015158152602001610059565b6100a17f000000000000000000000000000000000000000000000000000000000000000081565b6040516001600160a01b039091168152602001610059565b600061dead7f00000000000000000000000000000000000000000000000000000000000000006001600160a01b0316634e3d72b26040518163ffffffff1660e01b8152600401602060405180830381865afa15801561011c573d6000803e3d6000fd5b505050506040513d601f19601f820116820180604052508101906101409190610146565b11905090565b60006020828403121561015857600080fd5b505191905056fea264697066735822122021745dfddd7753b14a81e361e6bfb6ce763d5e7c2a05786dda1b86aaa22b035d64736f6c634300081b0033608060405234801561001057600080fd5b5060405161025038038061025083398101604081905261002f916100a3565b604080514360208201524291810191909152446060820152600090819060800160408051601f19818403018152919052805160209091012080546001600160a01b03909416640100000000026001600160c01b031990941663ffffffff9095169485179390931790925550506000556100f2565b600080604083850312156100b657600080fd5b825163ffffffff811681146100ca57600080fd5b60208401519092506001600160a01b03811681146100e757600080fd5b809150509250929050565b61014f806101016000396000f3fe608060405234801561001057600080fd5b50600436106100365760003560e01c80630f9b5d1f1461003b5780634e3d72b214610050575b600080fd5b61004e610049366004610100565b61006b565b005b61005960005481565b60405190815260200160405180910390f35b8054819063ffffffff166000036100de5760405162461bcd60e51b815260206004820152602d60248201527f466f72676f7474656e41727469666163743a20756e6b6e6f776e20617274696660448201526c30b1ba103637b1b0ba34b7b71760991b606482015260840160405180910390fd5b8054640100000000600160c01b03191633640100000000021790555042600055565b60006020828403121561011257600080fd5b503591905056fea26469706673582212206e2e0029c681f98be8de406dbd1a6ab2dacb34dacfcb7a1d4aa4dc62afe5bf6164736f6c634300081b0033","linkReferences":{}},"methodIdentifiers":{"ARTIFACT_ORIGIN()":"468e2c68","TARGET()":"cc1f2afa","isSolved()":"64d98f6e"},"id":1}